{
  "_format": "hh-sol-artifact-1",
  "contractName": "Lottery",
  "sourceName": "contracts/Lottery.sol",
  "abi": [
    {
      "inputs": [],
      "name": "counter",
      "outputs": [
        {
          "internalType": "uint256",
          "name": "",
          "type": "uint256"
        }
      ],
      "stateMutability": "view",
      "type": "function"
    },
    {
      "inputs": [
        {
          "internalType": "uint256",
          "name": "_amount",
          "type": "uint256"
        }
      ],
      "name": "play",
      "outputs": [],
      "stateMutability": "payable",
      "type": "function"
    },
    {
      "inputs": [
        {
          "internalType": "address",
          "name": "",
          "type": "address"
        }
      ],
      "name": "player",
      "outputs": [
        {
          "internalType": "uint256",
          "name": "",
          "type": "uint256"
        }
      ],
      "stateMutability": "view",
      "type": "function"
    }
  ],
  "bytecode": "0x6080604052348015600f57600080fd5b5061040b8061001f6000396000f3fe6080604052600436106100345760003560e01c80634c54e1b51461003957806361bc221a146100765780636898f82b146100a1575b600080fd5b34801561004557600080fd5b50610060600480360381019061005b91906101f3565b6100bd565b60405161006d9190610239565b60405180910390f35b34801561008257600080fd5b5061008b6100d5565b6040516100989190610239565b60405180910390f35b6100bb60048036038101906100b69190610280565b6100db565b005b60016020528060005260406000206000915090505481565b60005481565b806000811161011f576040517f08c379a00000000000000000000000000000000000000000000000000000000081526004016101169061030a565b60405180910390fd5b81600160003373ffffffffffffffffffffffffffffffffffffffff1673ffffffffffffffffffffffffffffffffffffffff168152602001908152602001600020600082825461016e9190610359565b925050819055506000808154809291906101879061038d565b91905055505050565b600080fd5b600073ffffffffffffffffffffffffffffffffffffffff82169050919050565b60006101c082610195565b9050919050565b6101d0816101b5565b81146101db57600080fd5b50565b6000813590506101ed816101c7565b92915050565b60006020828403121561020957610208610190565b5b6000610217848285016101de565b91505092915050565b6000819050919050565b61023381610220565b82525050565b600060208201905061024e600083018461022a565b92915050565b61025d81610220565b811461026857600080fd5b50565b60008135905061027a81610254565b92915050565b60006020828403121561029657610295610190565b5b60006102a48482850161026b565b91505092915050565b600082825260208201905092915050565b7f416d6f756e74206d7573742062652067726561746572207468616e207a65726f600082015250565b60006102f46020836102ad565b91506102ff826102be565b602082019050919050565b60006020820190508181036000830152610323816102e7565b9050919050565b7f4e487b7100000000000000000000000000000000000000000000000000000000600052601160045260246000fd5b600061036482610220565b915061036f83610220565b92508282019050808211156103875761038661032a565b5b92915050565b600061039882610220565b91507fffffffffffffffffffffffffffffffffffffffffffffffffffffffffffffffff82036103ca576103c961032a565b5b60018201905091905056fea264697066735822122073148a0c2375fb1ef01da915a0d99978afe851609c002972a674d4e2531effa364736f6c634300081c0033",
  "linkReferences": {},
  "deployedLinkReferences": {}
}